:100000000C9463000C9435090C945C090C948B00DF
:100010000C948B000C948B000C948B000C948B0034
:100020000C948B000C948B000C948B000C948B0024
:100030000C948B000C948B000C948B000C948B0014
:100040000C945F010C948B000C94AE090C94E009A5
:100050000C948B000C948B000C948B000C948B00F4
:100060000C948B000C948B0000000008000201002F
:100070000003040700000000000000000102040863
:100080001020408001020408102001020408102002
:10009000040404040404040402020202020203032E
:1000A00003030303000000002300260029000000D2
:1000B0000000250028002B0000000000240027007D
:1000C0002A004C01100A11241FBECFEFD8E0DEBF7A
:1000D000CDBF11E0A0E0B1E0EAE5F6E102C0059095
:1000E0000D92A035B107D9F722E0A0E5B1E001C03B
:1000F0001D92A338B207E1F710E0C3E6D0E004C0D8
:100100002197FE010E94250BC136D107C9F70E9435
:1001100010030C942B0B0C940000CF93DF93C0E0E2
:10012000D1E081E0CA30D80729F060E089910E94CF
:10013000B602F7CF10925C01DF91CF9108952CE3C6
:1001400045E06BE580E591E00E94CD056EE071E051
:1001500080E591E00E94850561E083E00E947A02DB
:1001600061E084E00E947A0261E085E00E947A0208
:1001700061E086E00E947A0261E087E00E947A02F4
:1001800061E088E00E947A0261E08EE00E947A02DB
:1001900061E08FE00E947A0261E080E10E947A02D1
:1001A00061E081E10E947A020C948D00CF93C82F08
:1001B0000E948D0068E873E180E090E00E94DA011F
:1001C00061E08C2F0E94B602EBE5F1E081E08183D3
:1001D00015821482CF91089580E591E00E94310349
:1001E000882359F18BE2E8EAF1E0A8E6B1E001905A
:1001F0000D928A95E1F780916A018431F1F4809340
:100200005E0185E0EBE6F1E0A3E6B1E001900D923E
:100210008A95E1F7E0916401F0E0E050FF4F8081C2
:100220000E94D600809166019091670190936201CF
:100230008093610181E080935B0180915B01882361
:1002400051F10E94A90128EE33E040E050E00E9405
:10025000030B672B682B692BF1F462E370E080E0FD
:1002600090E00E94DA0180915F0190916001019617
:100270009093600180935F01209161013091620150
:100280008217930744F080915E01843121F40E942B
:100290008D0010925B010895E0E5F1E083E291E0CA
:1002A000918380838AE0828382E08383148281E069
:1002B0008093A70116828FE18783108608951F928D
:1002C0000F920FB60F9211242F933F938F939F930A
:1002D000AF93BF938091940190919501A091960165
:1002E000B09197013091930123E0230F2D3720F433
:1002F0000196A11DB11D05C026E8230F0296A11D80
:10030000B11D209393018093940190939501A09344
:100310009601B09397018091980190919901A091D5
:100320009A01B0919B010196A11DB11D8093980186
:1003300090939901A0939A01B0939B01BF91AF91C3
:100340009F918F913F912F910F900FBE0F901F9013
:1003500018952FB7F8946091940170919501809150
:100360009601909197012FBF08953FB7F89480911F
:10037000980190919901A0919A01B0919B0126B5A5
:10038000A89B05C02F3F19F00196A11DB11D3FBFCD
:10039000BA2FA92F982F8827820F911DA11DB11D5B
:1003A000BC01CD0142E0660F771F881F991F4A9557
:1003B000D1F708958F929F92AF92BF92CF92DF9222
:1003C000EF92FF926B017C010E94B5014B015C0131
:1003D000C114D104E104F10401F10E9413090E9447
:1003E000B501DC01CB0188199909AA09BB09883E2E
:1003F0009340A105B10560F321E0C21AD108E108DC
:10040000F10888EE880E83E0981EA11CB11CC1146F
:10041000D104E104F10419F7DBCFFF90EF90DF90F6
:10042000CF90BF90AF909F908F900895789484B5AF
:10043000826084BD84B5816084BD85B5826085BDE0
:1004400085B5816085BDEEE6F0E0808181608083C6
:10045000E1E8F0E0108280818260808380818160A9
:100460008083E0E8F0E0808181608083E1EBF0E070
:10047000808184608083E0EBF0E080818160808314
:10048000EAE7F0E0808184608083808182608083FD
:100490008081816080838081806880831092C10028
:1004A0000895833081F028F4813099F08230A1F0F2
:1004B00008958730A9F08830B9F08430D1F4809164
:1004C00080008F7D03C0809180008F7780938000B3
:1004D000089584B58F7702C084B58F7D84BD08955B
:1004E0008091B0008F7703C08091B0008F7D8093A2
:1004F000B0000895CF93DF9390E0FC01E458FF4FE4
:100500002491FC01E057FF4F8491882361F190E032
:10051000880F991FFC01E854FF4FC591D491FC014D
:10052000E255FF4FA591B491611109C09FB7F894AE
:100530008881209582238883EC912E230BC0623022
:1005400061F49FB7F8943881822F80958323888344
:10055000EC912E2B2C939FBF06C08FB7F894E881A7
:100560002E2B28838FBFDF91CF9108951F93CF93B8
:10057000DF93282F30E0F901E859FF4F8491F9010A
:10058000E458FF4FD491F901E057FF4FC491CC23B9
:10059000C9F0162F81110E945102EC2FF0E0EE0FEE
:1005A000FF1FE255FF4FA591B4918FB7F894111139
:1005B00005C09C91ED2FE095E92302C0EC91ED2B55
:1005C000EC938FBFDF91CF911F910895CF93DF936D
:1005D000282F30E0F901E859FF4F8491F901E458E0
:1005E000FF4FD491F901E057FF4FC491CC2391F014
:1005F00081110E945102EC2FF0E0EE0FFF1FEC552D
:10060000FF4FA591B491EC91ED2381E090E021F4AE
:1006100080E002C080E090E0DF91CF9108950895DE
:100620000E9416020E940F030E949F00CBE6DAE0B0
:100630000E94EC002097E1F30E946B0AF9CF089525
:1006400081E080939E0180919C0190919D01DC014D
:10065000ED91FC910484F585E02D099510929E01A1
:100660000895F8942091A701233021F42091A3014B
:1006700021110FC02091A701233011F4789407C0F5
:10068000DC01ED91FC910288F389E02D099580E071
:100690000895DC01ED91FC910488F589E02D61E07D
:1006A000099581E00895CF93DF93EC0161E08A81A1
:1006B0000E94B60289858CBD8A858DBD80919E0180
:1006C000811101C07894DF91CF910895FC01F894D5
:1006D0008CB581878DB582878CB5837F8CBD8CB5B9
:1006E0008F7D8CBD8CB58C7F8CBD8DB58E7F8DBD87
:1006F00060E082810C94B6028EBD00000DB407FE4E
:10070000FDCF8EB50895CF93DF931F92CDB7DEB79F
:10071000DC01ED91FC910480F581E02D6983099560
:100720006981882361F08091A501861711F06F3FE0
:1007300029F49091A10181E0911101C080E00F9016
:10074000DF91CF9108952F923F924F925F926F92D7
:100750007F928F929F92AF92BF92CF92DF92EF9251
:10076000FF920F931F93CF93DF936C01D62F3A0123
:10077000F22E102FC0E08E2C912CA12CB12CD60182
:10078000ED91FC910190F081E02D01E02F2DA3016E
:100790006D2FC60109950E94A9011B012C010E9421
:1007A000A901DC01CB0182199309A409B5098815B7
:1007B0009905AA05BB0538F46D2FC6010E94830375
:1007C000882369F304C0CF5F1C17C8F680E0DF916F
:1007D000CF911F910F91FF90EF90DF90CF90BF903E
:1007E000AF909F908F907F906F905F904F903F90D1
:1007F0002F900895EF92FF921F93CF93DF931F9254
:10080000CDB7DEB77C01DC01ED91FC91008CF18D60
:10081000E02D698309956981862F8F770E947C037B
:1008200080E00E947C03182FD701ED91FC91028C8F
:10083000F38DE02DC7010995812F0F90DF91CF91A6
:100840001F91FF90EF9008950F931F93CF93DF9325
:1008500000D0CDB7DEB78C01DC01ED91FC91008CAE
:10086000F18DE02D4A83698309956981862F80681F
:100870000E947C034A81842F0E947C03D801ED9161
:10088000FC91028CF38DE02DC8010F900F90DF9149
:10089000CF911F910F9109941F93CF93DF932091D4
:1008A000A701621709F45DC0162FEC016230E9F16F
:1008B00068F4662309F440C0613009F052C061E079
:1008C0000E94FA03837E482F44603BC06330B9F036
:1008D000643009F046C061E00E94FA03837E482F2D
:1008E0004C6061E0CE010E9424048885882369F170
:1008F000E881F9810688F789E02D61E013C061E0A5
:100900000E94FA03837E482F406161E0CE010E947D
:10091000240488858823C9F0E881F9810688F7894D
:10092000E02D60E0CE01099510C061E00E94FA035D
:10093000837E482F486005C061E00E94FA03482F7B
:10094000437E61E0CE010E9424048091A7018111C1
:1009500006C067E2CE010E94FA0387FFF6CF10932C
:10096000A701DF91CF911F910895CF93DF93EC0101
:10097000603208F06FE16F838885882311F06695F7
:100980006F8361E1CE010E94FA03807E9F81482F30
:10099000492B61E1CE01DF91CF910C942404CF92D9
:1009A000DF92EF92FF920F931F93CF93DF93EC01AF
:1009B000F62ED42EC52E122FE881F9810488F589F0
:1009C000E02D61E0099567E2CE010E94FA0387FFFE
:1009D000FACF40E065E2CE010E9424041E3308F005
:1009E0001DE3E11004C0002321F000E403C000E88F
:1009F00001C000E0E881F981008CF18DE02DCE018D
:100A0000099580E80E947C0383E0810F0E947C03AB
:100A10008F2D0E947C038D810E947C03802F0E9479
:100A20007C030D2DED2CFC2C8E2D801B811730F4BA
:100A3000F70181917F010E947C03F6CFE881F98163
:100A4000028CF38DE02DCE010995E881F9810488AF
:100A5000F589E02D64E0CE0109950E94A9016B01A2
:100A60007C018B810E94E602892B81F0E881F9816B
:100A70000488F589E02D61E0CE01DF91CF911F91CF
:100A80000F91FF90EF90DF90CF9009940E94A90101
:100A9000DC01CB018C199D09AE09BF09883E93404A
:100AA000A105B105F0F2E2CFCF93DF93EC011092F4
:100AB000A6011092A5011092A4011092A301109218
:100AC000A2011092A1011092A00110929F0168E270
:100AD0000E94FA0382FF0AC06DE3CE010E94FA036E
:100AE000482F44606DE3CE010E94240440E465E297
:100AF000CE010E942404E881F9810488F589E02D63
:100B000063E0CE01DF91CF910994CF92DF92EF9213
:100B1000FF920F931F93CF93DF93EC018B01E8813A
:100B2000F9810488F589E02D61E009950115110529
:100B3000F1F0E881F981008CF18DE02DCE0109956D
:100B40008EEB0E947C037801680180E1C80ED11C05
:100B5000F70181917F010E947C03EC14FD04C1F731
:100B6000E881F981028CF38DE02DCE0109956DE3CA
:100B7000CE010E94FA038E7F41E0012B09F440E090
:100B8000482B6DE3CE01DF91CF911F910F91FF9024
:100B9000EF90DF90CF900C9424048F929F92AF92AD
:100BA000BF92CF92DF92EF92FF920F931F93CF935A
:100BB000DF93CDB7DEB7AE970FB6F894DEBF0FBEAA
:100BC000CDBF8C01E42E8EE2AE014F5F5F4F6A0114
:100BD000DA01E82F1D92EA95E9F791E0998334E074
:100BE0003A8342E04B8393E09D834E833F8340E40E
:100BF000488735E039879A8796E09B8793E39C87FF
:100C000037E03D8798E09F8799E0998B99E19B8B2E
:100C100092E49C8B55E25D8B4E8B46E24F8B388F76
:100C200038E2398F30E13A8F39E23B8F3CED3C8F2F
:100C30008D8F88E88E8F8FE28F8F8DE288A380E37F
:100C400089A337E33BA330E93CA338E33DA39EA34C
:100C50009CE39FA39FE898A79DE399A792E19AA799
:100C60009FE69BA78CA78FEF8DA76F3131F06B327A
:100C700031F0663531F084EE05C08EE403C08CE6B9
:100C800001C089ED8E876F3121F06B3221F066351E
:100C900021F080EC03C080E401C080E0888B2AA3AF
:100CA00061E0D80112968C910E94B60261E0F801D1
:100CB00082810E947A020E94DD080E94A9014B01F4
:100CC0005C014AEA6FE2C8010E9424046FE2C80195
:100CD0000E94FA038A3A61F00E94A901DC01CB016B
:100CE00088199909AA09BB09C297A105B10548F35A
:100CF0000E94A9014B015C0145E56FE2C8010E9419
:100D000024046FE2C8010E94FA03853561F00E9455
:100D1000A901DC01CB0188199909AA09BB09C2976D
:100D2000A105B10548F3F12CF601EF0DF11DEF0D12
:100D3000F11D60816F3F31F04181C8010E942404A0
:100D4000F394F2CF60E070E0C8010E948505D801FD
:100D5000ED91FC9111970084F185E02D18966C912E
:100D6000C8010995D801ED91FC910488F589E02D21
:100D700061E0C80109950E94A9014B015C0167E28D
:100D8000C8010E94FA0387FD0CC00E94A901DC0182
:100D9000CB0188199909AA09BB09C297A105B10518
:100DA00070F30E94A901DC01CB0188199909AA09F5
:100DB000BB09C297A105B10598F410929E0143E0CA
:100DC00050E060E273E0F80184810E9415091093FD
:100DD0009D0100939C01D8011596EC9281E001C021
:100DE00080E0AE960FB6F894DEBF0FBECDBFDF91A8
:100DF000CF911F910F91FF90EF90DF90CF90BF9018
:100E0000AF909F908F900895CF93DF93EC01611185
:100E10000DC064E2CE010E94FA0390E091958195A5
:100E2000910995958795DF91CF91089541E063E20F
:100E30000E94240463E2CE010E94FA0381FFFACFEC
:100E4000E8CFCF93DF932091A7012330A9F420911D
:100E5000A301211111C0EC0160E00E940407863A51
:100E60009F4F54F4E881F9810488F589E02D61E011
:100E7000CE01099581E001C080E0DF91CF91089516
:100E8000EF92FF921F93CF93DF93EC018091A70124
:100E9000833001F568E2CE010E94FA0382FD28C08A
:100EA00019C08091A6018D3330F4E091A601F0E0E5
:100EB000E855FE4F1082E881F981028CF38DE02D18
:100EC000CE010995E881F9810488F589E02D63E078
:100ED000CE01099560E0CE010E9404079093A00125
:100EE00080939F01DF91CF911F91FF90EF90089524
:100EF000E881F9810488F589E02D61E0CE0109954A
:100F0000E881F981008CF18DE02DCE01099580E01A
:100F10000E947C0380E00E947C038093A301809167
:100F2000A3018334D0F48091A3018093A30180E0D6
:100F30000E947C038093A4018E81811109C090914D
:100F4000A4018D81981721F08091A4018F3F39F47D
:100F50008091A301833018F017C082E4E6CF10928D
:100F6000A301E881F981028CF38DE02DCE01099572
:100F7000E881F9810288F389E02DCE01DF91CF91DC
:100F80001F91FF90EF9009948091A301835080936B
:100F9000A60180E00E947C038093A50180E00E946E
:100FA0007C03982F90789093A101982F9074909340
:100FB000A201E881F9810684F785E02D682FCE0132
:100FC000099510E08091A601181708F06ACFE12E6C
:100FD000F12C80E00E947C03F701E855FE4F8083EE
:100FE0001F5FF0CF8F929F92AF92BF92CF92DF920E
:100FF000EF92FF920F931F93CF93DF93EC01162F85
:101000006A01F22E6DE30E94FA03482F44606DE3FB
:10101000CE010E9424040E94A9014B015C01CE0173
:101020000E9421078823C1F0E881F9810088F189B5
:10103000E02DE12C2F2DA601612FCE010995DF9126
:10104000CF911F910F91FF90EF90DF90CF90BF90C5
:10105000AF909F908F9008950E94A901DC01CB0171
:1010600088199909AA09BB09883E9340A105B105D1
:10107000D8F6E881F9810480F581E02DCE0109954B
:10108000CECF4F925F926F927F92AF92BF92CF92EC
:10109000DF92EF92FF920F931F93CF93DF93EC01B8
:1010A0005B01F42E1092A2011091A501C0909F0146
:1010B000D090A0016DE30E94FA03482F44606DE3D5
:1010C000CE010E9424040E94A9012B013C01CE0103
:1010D0000E942107882311F11093A501E881F9816D
:1010E0000088F189E02DEE24E39400E02F2DA50186
:1010F000612FCE010995D092A001C0929F01DF918E
:10110000CF911F910F91FF90EF90DF90CF90BF9004
:10111000AF907F906F905F904F9008950E94A901CB
:10112000DC01CB0184199509A609B709883E9340D3
:10113000A105B10588F6E881F9810480F581E02DEB
:10114000CE010995C4CFCF93DF93EC01688761117D
:1011500002C04AE101C04FE063E1CE010E942404D5
:101160008885882341F061E1CE010E94FA038F71E6
:10117000482F406602C04F81406861E1CE01DF9197
:10118000CF910C9424041F93CF93DF93EC01162F7F
:10119000611102C045E501C04DE56AE5CE010E943E
:1011A0002404111102C040E701C04CE76CE5CE01F8
:1011B000DF91CF911F910C942404CF93CFB7F89473
:1011C0008091E501811127C0EAE9F0E08491E6E829
:1011D000F0E09491E82FF0E0EE0FFF1FE854FF4F8E
:1011E000A591B491EC91E92321F461E08AE00E9499
:1011F000B60261E08AE00E947A028CB580618CBD03
:101200008CB580648CBD61E08DE00E947A0261E063
:101210008BE00E947A028091E5018F5F8093E50167
:10122000CFBFCF910895089508958230E8F4E82F54
:10123000F0E0EE0FFF1FE65FFE4F718360838130A9
:1012400041F0809169008C7F482B40936900E89AB7
:10125000089580916900440F551F440F551F837FE7
:10126000482B40936900E99A08951F920F920FB698
:101270000F9211242F933F934F935F936F937F931C
:101280008F939F93AF93BF93EF93FF93E0910A01E6
:10129000F0910B010995FF91EF91BF91AF919F9153
:1012A0008F917F916F915F914F913F912F910F900F
:1012B0000FBE0F901F9018951F920F920FB60F92AE
:1012C00011242F933F934F935F936F937F938F934B
:1012D0009F93AF93BF93EF93FF93E0910C01F09135
:1012E0000D010995FF91EF91BF91AF919F918F9162
:1012F0007F916F915F914F913F912F910F900FBE12
:101300000F901F901895CF92DF92EF92FF920F935C
:101310001F93CF93DF936C017A018B01C0E0D0E083
:10132000CE15DF0589F0D8016D918D01D601ED91C3
:10133000FC910190F081E02DC6010995892B11F4F3
:101340007E0102C02196ECCFC701DF91CF911F91A2
:101350000F91FF90EF90DF90CF9008951F920F9222
:101360000FB60F9211242F938F939F93EF93FF93B8
:10137000E091F601F091F7018081E091FC01F0919C
:10138000FD0182FD12C090818091FF018F5F8F73FC
:1013900020910002821751F0E091FF01F0E0EA5144
:1013A000FE4F958F8093FF0101C08081FF91EF91E7
:1013B0009F918F912F910F900FBE0F901F901895B6
:1013C0001F920F920FB60F9211242F933F934F93BA
:1013D0005F936F937F938F939F93AF93BF93EF939D
:1013E000FF9386EE91E00E94790AFF91EF91BF9101
:1013F000AF919F918F917F916F915F914F913F91AD
:101400002F910F900FBE0F901F90189586EE91E0D0
:101410000E943D0A21E0892B09F420E0822F0895E3
:10142000E6EEF1E01382128288EE93E0A0E0B0E0F5
:1014300084839583A683B78383E491E0918380833B
:1014400085EC90E09587848784EC90E09787868789
:1014500080EC90E0918B808B81EC90E0938B828B81
:1014600082EC90E0958B848B86EC90E0978B868B5A
:10147000118E128E138E148E0895FC01918D228D83
:10148000892F90E0805C9F4F821B91098F73992771
:101490000895FC01918D828D981731F0828DE80FAF
:1014A000F11D858D90E008958FEF9FEF0895FC0169
:1014B000918D828D981761F0828DDF01A80FB11D8B
:1014C0005D968C91928D9F5F9F73928F90E00895AF
:1014D0008FEF9FEF089586E09AE0892B49F080E036
:1014E00090E0892B29F00E94060A81110C940000DB
:1014F0000895FC01848DDF01A80FB11DA35ABF4FD1
:101500002C91848D90E001968F739927848FA68902
:10151000B7892C93A089B1898C9180648C93938D29
:10152000848D981306C00288F389E02D80818F7D19
:1015300080830895CF93DF93EC01888D8823C9F0D1
:10154000EA89FB89808185FD05C0A889B9898C91CC
:1015500086FD0FC00FB607FCF5CF808185FFF2CF67
:10156000A889B9898C9185FFEDCFCE010E94790AB7
:10157000E7CFDF91CF910895EF92FF920F931F93E2
:10158000CF93DF93EC0181E0888F9B8D8C8D981336
:1015900005C0E889F989808185FD24C0F62E0B8D70
:1015A00010E00F5F1F4F0F731127E02E8C8DE81294
:1015B0000CC00FB607FCFACFE889F989808185FF56
:1015C000F5CFCE010E94790AF1CF8B8DFE01E80F95
:1015D000F11DE35AFF4FF0820B8FEA89FB8980816E
:1015E000806207C0EE89FF896083E889F98980817C
:1015F0008064808381E090E0DF91CF911F910F9113
:10160000FF90EF900895A1E21A2EAA1BBB1BFD01CB
:101610000DC0AA1FBB1FEE1FFF1FA217B307E407D1
:10162000F50720F0A21BB30BE40BF50B661F771F29
:10163000881F991F1A9469F7609570958095909509
:101640009B01AC01BD01CF010895EE0FFF1F059076
:0A165000F491E02D0994F894FFCF07
:10165A00080706050F101103040E1409140974680B
:10166A0069734973456E63727970744B65790000CA
:10167A00000000F207A30331034108A308B50440A0
:10168A00071F03CF0454054C04C308660353030021
:10169A00000000BC0A83093D0A570A490A9A0A004F
:00000001FF
