:100000000C9463000C94AB090C94D2090C948B00F3
:100010000C948B000C948B000C948B000C948B0034
:100020000C948B000C948B000C948B000C948B0024
:100030000C948B000C948B000C948B000C948B0014
:100040000C94D5010C948B000C94240A0C94560A41
:100050000C948B000C948B000C948B000C948B00F4
:100060000C948B000C948B0000000008000201002F
:100070000003040700000000000000000102040863
:100080001020408001020408102001020408102002
:10009000040404040404040402020202020203032E
:1000A00003030303000000002300260029000000D2
:1000B0000000250028002B0000000000240027007D
:1000C0002A00A501860A11241FBECFEFD8E0DEBFAB
:1000D000CDBF11E0A0E0B1E0E6E4F7E102C0059099
:1000E0000D92A634B107D9F722E0A6E4B1E001C031
:1000F0001D92A639B207E1F710E0C3E6D0E004C0D4
:100100002197FE010E949B0BC136D107C9F70E94BF
:1001100086030C94A10B0C9400002CE34CE26BE5DD
:1001200089E491E00E94430665E071E089E491E092
:100130000E94FB0561E083E00E94F00261E080E143
:100140000C94F0020F931F93CF93C82F8B0161E0A3
:100150000E94F00261E08C2F0E942C03B801110F65
:10016000880B990B0E94500260E08C2FCF911F9159
:100170000F910C942C030F93CF9389E491E00E948C
:10018000A703882309F440C08BE2EBEBF1E0ABE777
:10019000B1E001900D928A95E1F780917D01863062
:1001A00051F484E1EEE7F1E0A7E6B1E001900D92B1
:1001B0008A95E1F7C7C0853009F0C4C080917E01FF
:1001C00090917F01A0918001B091810180936301A2
:1001D00090936401A0936501B093660180916401DE
:1001E000813011F461E001C060E083E00E942C03E3
:1001F00080916601813011F461E001C060E080E12E
:10020000CF910F910C942C030E941F022AEB33E133
:1002100040E050E00E94790B672B682B692BE1F5D9
:10022000C1E0C0937B0184E080937C0184E68093ED
:100230007D0129E22093590180915A0190915B013F
:10024000A0915C01B0915D010196A11DB11D80934B
:100250005A0190935B01A0935C01B0935D012093E0
:100260005E010E941F0260935F01709360018093A2
:100270006101909362018AE0E9E5F1E0AEE7B1E067
:1002800001900D928A95E1F78DE090E090934701FF
:1002900080934601C09348010E941F0220E137E28B
:1002A00040E050E00E94790B672B682B692BA1F589
:1002B00081E080937B0184E080937C0185E68093DC
:1002C0007D0188E28093540183E00E94B801092EE9
:1002D000000CAA0BBB0B8093550190935601A09381
:1002E0005701B0935801EEE7F1E088E28E0F1192CA
:1002F0008E13FDCF85E0E4E5F1E0AEE7B1E00190DB
:100300000D928A95E1F788E090E090934701809301
:10031000460181E08093480180914801882391F053
:1003200000E0209146014BE751E060917B0189E4B8
:1003300091E00E94680864E670E089E00E94A200F3
:1003400010924801CF910F910895E9E4F1E08AE11C
:1003500091E0918380838AE0828382E083831482A8
:1003600081E08093BA0116828FE187831086089519
:100370008E3008F08E5087702091000190E4299F04
:1003800090011124822B80937C0080917A008064FC
:1003900080937A0080917A0086FDFCCF809178006E
:1003A0002091790090E0922B08951F920F920FB642
:1003B0000F9211242F933F938F939F93AF93BF93EB
:1003C0008091A7019091A801A091A901B091AA01E3
:1003D0003091A60123E0230F2D3720F40196A11DB3
:1003E000B11D05C026E8230F0296A11DB11D209363
:1003F000A6018093A7019093A801A093A901B093AF
:10040000AA018091AB019091AC01A091AD01B09196
:10041000AE010196A11DB11D8093AB019093AC017B
:10042000A093AD01B093AE01BF91AF919F918F9119
:100430003F912F910F900FBE0F901F9018952FB7DF
:10044000F8946091A7017091A8018091A901909101
:10045000AA012FBF08953FB7F8948091AB01909106
:10046000AC01A091AD01B091AE0126B5A89B05C02D
:100470002F3F19F00196A11DB11D3FBFBA2FA92F23
:10048000982F8827820F911DA11DB11DBC01CD01A0
:1004900042E0660F771F881F991F4A95D1F708958C
:1004A0008F929F92AF92BF92CF92DF92EF92FF9284
:1004B0006B017C010E942B024B015C01C114D10431
:1004C000E104F10401F10E9489090E942B02DC0180
:1004D000CB0188199909AA09BB09883E9340A10557
:1004E000B10560F321E0C21AD108E108F10888EEF5
:1004F000880E83E0981EA11CB11CC114D104E10434
:10050000F10419F7DBCFFF90EF90DF90CF90BF9011
:10051000AF909F908F900895789484B5826084BD49
:1005200084B5816084BD85B5826085BD85B58160F7
:1005300085BDEEE6F0E0808181608083E1E8F0E057
:100540001082808182608083808181608083E0E886
:10055000F0E0808181608083E1EBF0E08081846065
:100560008083E0EBF0E0808181608083EAE7F0E067
:1005700080818460808380818260808380818160CB
:1005800080838081806880831092C10008958330C9
:1005900081F028F4813099F08230A1F008958730FD
:1005A000A9F08830B9F08430D1F4809180008F7D3B
:1005B00003C0809180008F7780938000089584B578
:1005C0008F7702C084B58F7D84BD08958091B0007F
:1005D0008F7703C08091B0008F7D8093B000089525
:1005E000CF93DF9390E0FC01E458FF4F2491FC018E
:1005F000E057FF4F8491882361F190E0880F991FA5
:10060000FC01E854FF4FC591D491FC01E255FF4F26
:10061000A591B491611109C09FB7F8948881209584
:1006200082238883EC912E230BC0623061F49FB744
:10063000F8943881822F809583238883EC912E2B28
:100640002C939FBF06C08FB7F894E8812E2B288388
:100650008FBFDF91CF9108951F93CF93DF93282F02
:1006600030E0F901E859FF4F8491F901E458FF4F58
:10067000D491F901E057FF4FC491CC23C9F0162F54
:1006800081110E94C702EC2FF0E0EE0FFF1FE25530
:10069000FF4FA591B4918FB7F894111105C09C91AB
:1006A000ED2FE095E92302C0EC91ED2BEC938FBF89
:1006B000DF91CF911F910895CF93DF93282F30E0E2
:1006C000F901E859FF4F8491F901E458FF4FD491A3
:1006D000F901E057FF4FC491CC2391F081110E94A2
:1006E000C702EC2FF0E0EE0FFF1FEC55FF4FA59176
:1006F000B491EC91ED2381E090E021F480E002C020
:1007000080E090E0DF91CF91089508950E948C02DF
:100710000E9485030E948D00C1EEDAE00E94BB00BA
:100720002097E1F30E94E10AF9CF089581E08093D8
:10073000B1018091AF019091B001DC01ED91FC918C
:100740000484F585E02D09951092B1010895F8947F
:100750002091BA01233021F42091B60121110FC05C
:100760002091BA01233011F4789407C0DC01ED9197
:10077000FC910288F389E02D099580E00895DC0161
:10078000ED91FC910488F589E02D61E0099581E007
:100790000895CF93DF93EC0161E08A810E942C03DE
:1007A00089858CBD8A858DBD8091B101811101C083
:1007B0007894DF91CF910895FC01F8948CB58187EE
:1007C0008DB582878CB5837F8CBD8CB58F7D8CBDBC
:1007D0008CB58C7F8CBD8DB58E7F8DBD60E08281A8
:1007E0000C942C038EBD00000DB407FEFDCF8EB51A
:1007F0000895CF93DF931F92CDB7DEB7DC01ED9163
:10080000FC910480F581E02D698309956981882335
:1008100061F08091B801861711F06F3F29F4909133
:10082000B40181E0911101C080E00F90DF91CF9180
:1008300008952F923F924F925F926F927F928F9284
:100840009F92AF92BF92CF92DF92EF92FF920F935F
:100850001F93CF93DF936C01D62F3A01F22E102F06
:10086000C0E08E2C912CA12CB12CD601ED91FC91E5
:100870000190F081E02D01E02F2DA3016D2FC60125
:1008800009950E941F021B012C010E941F02DC011E
:10089000CB0182199309A409B50988159905AA0500
:1008A000BB0538F46D2FC6010E94F903882369F354
:1008B00004C0CF5F1C17C8F680E0DF91CF911F9175
:1008C0000F91FF90EF90DF90CF90BF90AF909F90EF
:1008D0008F907F906F905F904F903F902F900895F2
:1008E000EF92FF921F93CF93DF931F92CDB7DEB7A6
:1008F0007C01DC01ED91FC91008CF18DE02D698390
:1009000009956981862F8F770E94F20380E00E940B
:10091000F203182FD701ED91FC91028CF38DE02D9D
:10092000C7010995812F0F90DF91CF911F91FF9003
:10093000EF9008950F931F93CF93DF9300D0CDB71F
:10094000DEB78C01DC01ED91FC91008CF18DE02D86
:100950004A83698309956981862F80680E94F20322
:100960004A81842F0E94F203D801ED91FC91028C00
:10097000F38DE02DC8010F900F90DF91CF911F9163
:100980000F9109941F93CF93DF932091BA016217BF
:1009900009F45DC0162FEC016230E9F168F46623BA
:1009A00009F440C0613009F052C061E00E94700457
:1009B000837E482F44603BC06330B9F0643009F057
:1009C00046C061E00E947004837E482F4C6061E065
:1009D000CE010E949A048885882369F1E881F98113
:1009E0000688F789E02D61E013C061E00E94700481
:1009F000837E482F406161E0CE010E949A04888581
:100A00008823C9F0E881F9810688F789E02D60E044
:100A1000CE01099510C061E00E947004837E482FCA
:100A2000486005C061E00E947004482F437E61E089
:100A3000CE010E949A048091BA01811106C067E23A
:100A4000CE010E94700487FFF6CF1093BA01DF91A8
:100A5000CF911F910895CF93DF93EC01603208F09E
:100A60006FE16F838885882311F066956F8361E15C
:100A7000CE010E947004807E9F81482F492B61E146
:100A8000CE01DF91CF910C949A04CF92DF92EF9236
:100A9000FF920F931F93CF93DF93EC01F62ED42E8A
:100AA000C52E122FE881F9810488F589E02D61E0D7
:100AB000099567E2CE010E94700487FFFACF40E0FB
:100AC00065E2CE010E949A041E3308F01DE3E11096
:100AD00004C0002321F000E403C000E801C000E0EE
:100AE000E881F981008CF18DE02DCE01099580E837
:100AF0000E94F20383E0810F0E94F2038F2D0E9477
:100B0000F2038D810E94F203802F0E94F2030D2DCB
:100B1000ED2CFC2C8E2D801B811730F4F701819178
:100B20007F010E94F203F6CFE881F981028CF38DF8
:100B3000E02DCE010995E881F9810488F589E02D41
:100B400064E0CE0109950E941F026B017C018B813C
:100B50000E945C03892B81F0E881F9810488F58982
:100B6000E02D61E0CE01DF91CF911F910F91FF90B9
:100B7000EF90DF90CF9009940E941F02DC01CB011F
:100B80008C199D09AE09BF09883E9340A105B105A6
:100B9000F0F2E2CFCF93DF93EC011092B901109203
:100BA000B8011092B7011092B6011092B5011092DF
:100BB000B4011092B3011092B20168E20E94700475
:100BC00082FF0AC06DE3CE010E947004482F44608A
:100BD0006DE3CE010E949A0440E465E2CE010E94DA
:100BE0009A04E881F9810488F589E02D63E0CE015B
:100BF000DF91CF910994CF92DF92EF92FF920F9302
:100C00001F93CF93DF93EC018B01E881F981048876
:100C1000F589E02D61E0099501151105F1F0E881F4
:100C2000F981008CF18DE02DCE0109958EEB0E94AB
:100C3000F2037801680180E1C80ED11CF7018191AF
:100C40007F010E94F203EC14FD04C1F7E881F981F1
:100C5000028CF38DE02DCE0109956DE3CE010E944B
:100C600070048E7F41E0012B09F440E0482B6DE3D6
:100C7000CE01DF91CF911F910F91FF90EF90DF9008
:100C8000CF900C949A048F929F92AF92BF92CF9282
:100C9000DF92EF92FF920F931F93CF93DF93CDB725
:100CA000DEB7AE970FB6F894DEBF0FBECDBF8C0196
:100CB000E42E8EE2AE014F5F5F4F6A01DA01E82F4A
:100CC0001D92EA95E9F791E0998334E03A8342E096
:100CD0004B8393E09D834E833F8340E4488735E018
:100CE00039879A8796E09B8793E39C8737E03D8717
:100CF00098E09F8799E0998B99E19B8B92E49C8B7C
:100D000055E25D8B4E8B46E24F8B388F38E2398F40
:100D100030E13A8F39E23B8F3CED3C8F8D8F88E894
:100D20008E8F8FE28F8F8DE288A380E389A337E3D4
:100D30003BA330E93CA338E33DA39EA39CE39FA3E0
:100D40009FE898A79DE399A792E19AA79FE69BA7A2
:100D50008CA78FEF8DA76F3131F06B3231F0663594
:100D600031F084EE05C08EE403C08CE601C089ED4D
:100D70008E876F3121F06B3221F0663521F080ECE7
:100D800003C080E401C080E0888B2AA361E0D80121
:100D900012968C910E942C0361E0F80182810E94DE
:100DA000F0020E9453090E941F024B015C014AEAB3
:100DB0006FE2C8010E949A046FE2C8010E947004A9
:100DC0008A3A61F00E941F02DC01CB01881999095F
:100DD000AA09BB09C297A105B10548F30E941F02E9
:100DE0004B015C0145E56FE2C8010E949A046FE285
:100DF000C8010E947004853561F00E941F02DC0169
:100E0000CB0188199909AA09BB09C297A105B105A7
:100E100048F3F12CF601EF0DF11DEF0DF11D60818E
:100E20006F3F31F04181C8010E949A04F394F2CFE0
:100E300060E070E0C8010E94FB05D801ED91FC91D3
:100E400011970084F185E02D18966C91C8010995E1
:100E5000D801ED91FC910488F589E02D61E0C8018D
:100E600009950E941F024B015C0167E2C8010E94C4
:100E7000700487FD0CC00E941F02DC01CB018819A1
:100E80009909AA09BB09C297A105B10570F30E948F
:100E90001F02DC01CB0188199909AA09BB09C29775
:100EA000A105B10598F41092B10143E050E066E964
:100EB00073E0F80184810E948B091093B0010093C4
:100EC000AF01D8011596EC9281E001C080E0AE96AA
:100ED0000FB6F894DEBF0FBECDBFDF91CF911F914B
:100EE0000F91FF90EF90DF90CF90BF90AF909F90C9
:100EF0008F900895CF93DF93EC0161110DC064E2F0
:100F0000CE010E94700490E091958195910995958C
:100F10008795DF91CF91089541E063E20E949A04A2
:100F200063E2CE010E94700481FFFACFE8CFCF9335
:100F3000DF932091BA012330A9F42091B601211149
:100F400011C0EC0160E00E947A07863A9F4F54F48A
:100F5000E881F9810488F589E02D61E0CE010995E9
:100F600081E001C080E0DF91CF910895EF92FF9280
:100F70001F93CF93DF93EC018091BA01833001F589
:100F800068E2CE010E94700482FD28C019C08091E1
:100F9000B9018D3330F4E091B901F0E0E554FE4F32
:100FA0001082E881F981028CF38DE02DCE01099544
:100FB000E881F9810488F589E02D63E0CE01099587
:100FC00060E0CE010E947A079093B3018093B20152
:100FD000DF91CF911F91FF90EF900895E881F98103
:100FE0000488F589E02D61E0CE010995E881F98159
:100FF000008CF18DE02DCE01099580E00E94F20376
:1010000080E00E94F2038093B6018091B6018334A0
:10101000D0F48091B6018093B60180E00E94F20383
:101020008093B7018E81811109C09091B7018D81A4
:10103000981721F08091B7018F3F39F48091B60164
:10104000833018F017C082E4E6CF1092B601E88131
:10105000F981028CF38DE02DCE010995E881F981AB
:101060000288F389E02DCE01DF91CF911F91FF908F
:10107000EF9009948091B60183508093B90180E08C
:101080000E94F2038093B80180E00E94F203982F3F
:1010900090789093B401982F90749093B501E88163
:1010A000F9810684F785E02D682FCE01099510E0BF
:1010B0008091B901181708F06ACFE12EF12C80E079
:1010C0000E94F203F701E554FE4F80831F5FF0CFCB
:1010D0008F929F92AF92BF92CF92DF92EF92FF9248
:1010E0000F931F93CF93DF93EC01162F6A01F22E1B
:1010F0006DE30E947004482F44606DE3CE010E94AE
:101100009A040E941F024B015C01CE010E949707C6
:101110008823C1F0E881F9810088F189E02DE12C74
:101120002F2DA601612FCE010995DF91CF911F913F
:101130000F91FF90EF90DF90CF90BF90AF909F9076
:101140008F9008950E941F02DC01CB018819990934
:10115000AA09BB09883E9340A105B105D8F6E881EC
:10116000F9810480F581E02DCE010995CECF4F9213
:101170005F926F927F92AF92BF92CF92DF92EF9287
:10118000FF920F931F93CF93DF93EC015B01F42E3B
:101190001092B5011091B801C090B201D090B30186
:1011A0006DE30E947004482F44606DE3CE010E94FD
:1011B0009A040E941F022B013C01CE010E94970756
:1011C000882311F11093B801E881F9810088F18931
:1011D000E02DEE24E39400E02F2DA501612FCE0138
:1011E0000995D092B301C092B201DF91CF911F91C6
:1011F0000F91FF90EF90DF90CF90BF90AF907F90D6
:101200006F905F904F9008950E941F02DC01CB0108
:1012100084199509A609B709883E9340A105B1052F
:1012200088F6E881F9810480F581E02DCE010995E9
:10123000C4CFCF93DF93EC016887611102C04AE10C
:1012400001C04FE063E1CE010E949A0488858823A3
:1012500041F061E1CE010E9470048F71482F406619
:1012600002C04F81406861E1CE01DF91CF910C94C3
:101270009A041F93CF93DF93EC01162F611102C0E4
:1012800045E501C04DE56AE5CE010E949A041111C1
:1012900002C040E701C04CE76CE5CE01DF91CF9181
:1012A0001F910C949A04CF93CFB7F8948091F801D2
:1012B000811127C0EAE9F0E08491E6E8F0E094913A
:1012C000E82FF0E0EE0FFF1FE854FF4FA591B49117
:1012D000EC91E92321F461E08AE00E942C0361E0B3
:1012E0008AE00E94F0028CB580618CBD8CB5806470
:1012F0008CBD61E08DE00E94F00261E08BE00E9415
:10130000F0028091F8018F5F8093F801CFBFCF91F9
:101310000895089508958230E8F4E82FF0E0EE0F84
:10132000FF1FEF5FFE4F71836083813041F080913A
:1013300069008C7F482B40936900E89A089580915A
:101340006900440F551F440F551F837F482B40935E
:101350006900E99A08951F920F920FB60F92112417
:101360002F933F934F935F936F937F938F939F93AD
:10137000AF93BF93EF93FF93E0910101F0910201CE
:101380000995FF91EF91BF91AF919F918F917F91BF
:101390006F915F914F913F912F910F900FBE0F90E2
:1013A0001F9018951F920F920FB60F9211242F9332
:1013B0003F934F935F936F937F938F939F93AF93DD
:1013C000BF93EF93FF93E0910301F091040109951E
:1013D000FF91EF91BF91AF919F918F917F916F910D
:1013E0005F914F913F912F910F900FBE0F901F90E3
:1013F0001895CF92DF92EF92FF920F931F93CF93A6
:10140000DF936C017A018B01C0E0D0E0CE15DF05DF
:1014100089F0D8016D918D01D601ED91FC9101907B
:10142000F081E02DC6010995892B11F47E0102C0DF
:101430002196ECCFC701DF91CF911F910F91FF90C3
:10144000EF90DF90CF9008951F920F920FB60F92FA
:1014500011242F938F939F93EF93FF93E0910902B1
:10146000F0910A028081E0910F02F091100282FD5A
:1014700012C09081809112028F5F8F7320911302AE
:10148000821751F0E0911202F0E0E750FE4F958F85
:101490008093120201C08081FF91EF919F918F9103
:1014A0002F910F900FBE0F901F9018951F920F92C3
:1014B0000FB60F9211242F933F934F935F936F9327
:1014C0007F938F939F93AF93BF93EF93FF9389EF96
:1014D00091E00E94EF0AFF91EF91BF91AF919F9130
:1014E0008F917F916F915F914F913F912F910F90CD
:1014F0000FBE0F901F90189589EF91E00E94B30ADC
:1015000021E0892B09F420E0822F0895E9EFF1E032
:101510001382128288EE93E0A0E0B0E0848395838A
:10152000A683B7838AE391E09183808385EC90E082
:101530009587848784EC90E09787868780EC90E09D
:10154000918B808B81EC90E0938B828B82EC90E08E
:10155000958B848B86EC90E0978B868B118E128E08
:10156000138E148E0895FC01918D228D892F90E0A9
:10157000805C9F4F821B91098F7399270895FC010E
:10158000918D828D981731F0828DE80FF11D858D38
:1015900090E008958FEF9FEF0895FC01918D828D6B
:1015A000981761F0828DDF01A80FB11D5D968C91B7
:1015B000928D9F5F9F73928F90E008958FEF9FEFC2
:1015C00008958CE79AE0892B49F080E090E0892B20
:1015D00029F00E947C0A81110C9400000895FC01FE
:1015E000848DDF01A80FB11DA35ABF4F2C91848DAC
:1015F00090E001968F739927848FA689B7892C93E1
:10160000A089B1898C9180648C93938D848D98137B
:1016100006C00288F389E02D80818F7D8083089544
:10162000CF93DF93EC01888D8823C9F0EA89FB8989
:10163000808185FD05C0A889B9898C9186FD0FC080
:101640000FB607FCF5CF808185FFF2CFA889B98955
:101650008C9185FFEDCFCE010E94EF0AE7CFDF919D
:10166000CF910895EF92FF920F931F93CF93DF9343
:10167000EC0181E0888F9B8D8C8D981305C0E889E3
:10168000F989808185FD24C0F62E0B8D10E00F5F57
:101690001F4F0F731127E02E8C8DE8120CC00FB670
:1016A00007FCFACFE889F989808185FFF5CFCE0163
:1016B0000E94EF0AF1CF8B8DFE01E80FF11DE35A76
:1016C000FF4FF0820B8FEA89FB898081806207C01F
:1016D000EE89FF896083E889F9898081806480834D
:1016E00081E090E0DF91CF911F910F91FF90EF90FB
:1016F0000895A1E21A2EAA1BBB1BFD010DC0AA1F53
:10170000BB1FEE1FFF1FA217B307E407F50720F06A
:10171000A21BB30BE40BF50B661F771F881F991FE5
:101720001A9469F760957095809590959B01AC012E
:10173000BD01CF010895EE0FFF1F0590F491E02D3C
:061740000994F894FFCFAC
:10174600018A098A09746869734973456E637279F7
:1017560070744B6579000000000068081904A7033F
:10176600B70819092B05B60795034505CA05C2042E
:101776003909DC03C90300000000320BF909B30A7A
:06178600CD0ABF0A100BA2
:00000001FF
