:100000000C9463000C948E090C94B5090C948B002D
:100010000C948B000C948B000C948B000C948B0034
:100020000C948B000C948B000C948B000C948B0024
:100030000C948B000C948B000C948B000C948B0014
:100040000C94B8010C948B000C94070A0C94390A98
:100050000C948B000C948B000C948B000C948B00F4
:100060000C948B000C948B0000000008000201002F
:100070000003040700000000000000000102040863
:100080001020408001020408102001020408102002
:10009000040404040404040402020202020203032E
:1000A00003030303000000002300260029000000D2
:1000B0000000250028002B0000000000240027007D
:1000C0002A00A501690A11241FBECFEFD8E0DEBFC8
:1000D000CDBF11E0A0E0B1E0ECE0F7E102C0059097
:1000E0000D92A634B107D9F722E0A6E4B1E001C031
:1000F0001D92A138B207E1F710E0C3E6D0E004C0DA
:100100002197FE010E947E0BC136D107C9F70E94DC
:1001100069030C94840B0C9400002CE34AE26BE519
:100120008EE491E00E94260664E071E08EE491E0A6
:100130000E94DE0561E082E10C94D3020F931F93CD
:10014000CF93C82F8B0161E00E94D30261E08C2F16
:100150000E940F03B801110F880B990B0E94330204
:1001600060E08C2FCF911F910F910C940F030F9390
:100170001F93CF9380914C01882361F10E9402026A
:10018000209164013091650140E050E00E945C0BD9
:10019000672B682B692BF1F40E940E020091460137
:1001A000109147012091480130914901AB01BC01F8
:1001B000401B510B620B730B8091640190916501A0
:1001C00084569109A0E0B0E084179507A607B70709
:1001D00008F4A2C08EE491E00E948A038823E9F12A
:1001E0008BE2E6EAF1E0A6E6B1E001900D928A9595
:1001F000E1F7809168018F3009F0A3C08091690117
:1002000090916A01A0916B018093630190936401C6
:10021000A0936501809164019091650110924C0159
:100220008130910511F461E009C0029731F482E157
:100230000E943F0361E0892B09F060E082E10E94A7
:100240000F038091640190916501853F914008F40E
:1002500078C081E080934C0174C00E9402022CE4BB
:100260003DE140E050E00E945C0B672B682B692B5E
:10027000E1F5C1E0C093660184E08093670184E604
:100280008093680129E22093590180915A0190914D
:100290005B01A0915C01B0915D010196A11DB11DB2
:1002A00080935A0190935B01A0935C01B0935D0130
:1002B00020935E010E94020260935F0170936001CF
:1002C00080936101909362018AE0E9E5F1E0A9E69B
:1002D000B1E001900D928A95E1F78DE090E0909366
:1002E0004B0180934A01C0934D0180914D018823B9
:1002F00041F100E020914A0146E651E0609166013B
:100300008EE491E00E944B0864E670E089E00E9470
:100310009E0010924D0115C082E10E943F0361E0F2
:10032000892B09F060E082E10E940F030E940E0217
:10033000609346017093470180934801909349016F
:1003400049CFCF911F910F910895EEE4F1E089E13B
:1003500091E0918380838AE0828382E083831482A8
:1003600081E08093A50116828FE18783108608952E
:100370001F920F920FB60F9211242F933F938F93DA
:100380009F93AF93BF938091920190919301A0911D
:100390009401B09195013091910123E0230F2D3705
:1003A00020F40196A11DB11D05C026E8230F029679
:1003B000A11DB11D2093910180939201909393010F
:1003C000A0939401B093950180919601909197012B
:1003D000A0919801B09199010196A11DB11D809342
:1003E000960190939701A0939801B0939901BF91C2
:1003F000AF919F918F913F912F910F900FBE0F90D2
:100400001F9018952FB7F894609192017091930105
:1004100080919401909195012FBF08953FB7F89472
:100420008091960190919701A0919801B0919901C6
:1004300026B5A89B05C02F3F19F00196A11DB11D3F
:100440003FBFBA2FA92F982F8827820F911DA11D7A
:10045000B11DBC01CD0142E0660F771F881F991FB7
:100460004A95D1F708958F929F92AF92BF92CF9203
:10047000DF92EF92FF926B017C010E940E024B0112
:100480005C01C114D104E104F10401F10E946C0982
:100490000E940E02DC01CB0188199909AA09BB0947
:1004A000883E9340A105B10560F321E0C21AD1084E
:1004B000E108F10888EE880E83E0981EA11CB11CAB
:1004C000C114D104E104F10419F7DBCFFF90EF90E0
:1004D000DF90CF90BF90AF909F908F9008957894C9
:1004E00084B5826084BD84B5816084BD85B5826039
:1004F00085BD85B5816085BDEEE6F0E080818160D7
:100500008083E1E8F0E010828081826080838081D6
:1005100081608083E0E8F0E0808181608083E1EBAE
:10052000F0E0808184608083E0EBF0E08081816096
:100530008083EAE7F0E0808184608083808182604C
:100540008083808181608083808180688083109235
:10055000C1000895833081F028F4813099F0823011
:10056000A1F008958730A9F08830B9F08430D1F433
:10057000809180008F7D03C0809180008F77809371
:100580008000089584B58F7702C084B58F7D84BDC7
:1005900008958091B0008F7703C08091B0008F7D67
:1005A0008093B0000895CF93DF9390E0FC01E4586E
:1005B000FF4F2491FC01E057FF4F8491882361F1A4
:1005C00090E0880F991FFC01E854FF4FC591D4912A
:1005D000FC01E255FF4FA591B491611109C09FB78D
:1005E000F8948881209582238883EC912E230BC078
:1005F000623061F49FB7F8943881822F809583230D
:100600008883EC912E2B2C939FBF06C08FB7F89454
:10061000E8812E2B28838FBFDF91CF9108951F9300
:10062000CF93DF93282F30E0F901E859FF4F8491F1
:10063000F901E458FF4FD491F901E057FF4FC491FD
:10064000CC23C9F0162F81110E94AA02EC2FF0E0F2
:10065000EE0FFF1FE255FF4FA591B4918FB7F894AD
:10066000111105C09C91ED2FE095E92302C0EC919A
:10067000ED2BEC938FBFDF91CF911F910895CF9316
:10068000DF93282F30E0F901E859FF4F8491F901F9
:10069000E458FF4FD491F901E057FF4FC491CC23A8
:1006A00091F081110E94AA02EC2FF0E0EE0FFF1FE3
:1006B000EC55FF4FA591B491EC91ED2381E090E0D2
:1006C00021F480E002C080E090E0DF91CF910895B6
:1006D00008950E946F020E9468030E948D00C4EC7E
:1006E000DAE00E94B7002097E1F30E94C40AF9CF34
:1006F000089581E080939C0180919A0190919B01E3
:10070000DC01ED91FC910484F585E02D09951092B2
:100710009C010895F8942091A501233021F42091A3
:10072000A10121110FC02091A501233011F478946B
:1007300007C0DC01ED91FC910288F389E02D099559
:1007400080E00895DC01ED91FC910488F589E02DAD
:1007500061E0099581E00895CF93DF93EC0161E0BA
:100760008A810E940F0389858CBD8A858DBD809109
:100770009C01811101C07894DF91CF910895FC0113
:10078000F8948CB581878DB582878CB5837F8CBDBD
:100790008CB58F7D8CBD8CB58C7F8CBD8DB58E7FDF
:1007A0008DBD60E082810C940F038EBD00000DB4FE
:1007B00007FEFDCF8EB50895CF93DF931F92CDB77F
:1007C000DEB7DC01ED91FC910480F581E02D6983B9
:1007D00009956981882361F08091A301861711F042
:1007E0006F3F29F490919F0181E0911101C080E059
:1007F0000F90DF91CF9108952F923F924F925F9289
:100800006F927F928F929F92AF92BF92CF92DF9220
:10081000EF92FF920F931F93CF93DF936C01D62F2C
:100820003A01F22E102FC0E08E2C912CA12CB12C6D
:10083000D601ED91FC910190F081E02D01E02F2D8A
:10084000A3016D2FC60109950E9402021B012C0114
:100850000E940202DC01CB0182199309A409B509A7
:1008600088159905AA05BB0538F46D2FC6010E94AD
:10087000DC03882369F304C0CF5F1C17C8F680E04F
:10088000DF91CF911F910F91FF90EF90DF90CF906C
:10089000BF90AF909F908F907F906F905F904F90A0
:1008A0003F902F900895EF92FF921F93CF93DF9385
:1008B0001F92CDB7DEB77C01DC01ED91FC91008C7D
:1008C000F18DE02D698309956981862F8F770E94CC
:1008D000D50380E00E94D503182FD701ED91FC913C
:1008E000028CF38DE02DC7010995812F0F90DF91C8
:1008F000CF911F91FF90EF9008950F931F93CF9387
:10090000DF9300D0CDB7DEB78C01DC01ED91FC9117
:10091000008CF18DE02D4A83698309956981862FCA
:1009200080680E94D5034A81842F0E94D503D80194
:10093000ED91FC91028CF38DE02DC8010F900F908A
:10094000DF91CF911F910F9109941F93CF93DF9364
:100950002091A501621709F45DC0162FEC016230E9
:10096000E9F168F4662309F440C0613009F052C02F
:1009700061E00E945304837E482F44603BC0633093
:10098000B9F0643009F046C061E00E945304837EF0
:10099000482F4C6061E0CE010E947D048885882349
:1009A00069F1E881F9810688F789E02D61E013C0DB
:1009B00061E00E945304837E482F406161E0CE01D4
:1009C0000E947D0488858823C9F0E881F981068822
:1009D000F789E02D60E0CE01099510C061E00E942A
:1009E0005304837E482F486005C061E00E94530491
:1009F000482F437E61E0CE010E947D048091A501D5
:100A0000811106C067E2CE010E94530487FFF6CF32
:100A10001093A501DF91CF911F910895CF93DF939C
:100A2000EC01603208F06FE16F838885882311F054
:100A300066956F8361E1CE010E945304807E9F81A1
:100A4000482F492B61E1CE01DF91CF910C947D04B9
:100A5000CF92DF92EF92FF920F931F93CF93DF938A
:100A6000EC01F62ED42EC52E122FE881F9810488D0
:100A7000F589E02D61E0099567E2CE010E945304FB
:100A800087FFFACF40E065E2CE010E947D041E336D
:100A900008F01DE3E11004C0002321F000E403C0CE
:100AA00000E801C000E0E881F981008CF18DE02DC3
:100AB000CE01099580E80E94D50383E0810F0E9452
:100AC000D5038F2D0E94D5038D810E94D503802FE1
:100AD0000E94D5030D2DED2CFC2C8E2D801B811733
:100AE00030F4F70181917F010E94D503F6CFE881B0
:100AF000F981028CF38DE02DCE010995E881F98111
:100B00000488F589E02D64E0CE0109950E94020277
:100B10006B017C018B810E943F03892B81F0E8816E
:100B2000F9810488F589E02D61E0CE01DF91CF9154
:100B30001F910F91FF90EF90DF90CF9009940E944A
:100B40000202DC01CB018C199D09AE09BF09883E68
:100B50009340A105B105F0F2E2CFCF93DF93EC0112
:100B60001092A4011092A3011092A2011092A1016F
:100B70001092A00110929F0110929E0110929D016F
:100B800068E20E94530482FF0AC06DE3CE010E9416
:100B90005304482F44606DE3CE010E947D0440E47D
:100BA00065E2CE010E947D04E881F9810488F5891F
:100BB000E02D63E0CE01DF91CF910994CF92DF92D7
:100BC000EF92FF920F931F93CF93DF93EC018B0172
:100BD000E881F9810488F589E02D61E00995011526
:100BE0001105F1F0E881F981008CF18DE02DCE0145
:100BF00009958EEB0E94D5037801680180E1C80E4B
:100C0000D11CF70181917F010E94D503EC14FD04F2
:100C1000C1F7E881F981028CF38DE02DCE010995B1
:100C20006DE3CE010E9453048E7F41E0012B09F455
:100C300040E0482B6DE3CE01DF91CF911F910F91E2
:100C4000FF90EF90DF90CF900C947D048F929F9255
:100C5000AF92BF92CF92DF92EF92FF920F931F93CA
:100C6000CF93DF93CDB7DEB7AE970FB6F894DEBF64
:100C70000FBECDBF8C01E42E8EE2AE014F5F5F4F01
:100C80006A01DA01E82F1D92EA95E9F791E099836C
:100C900034E03A8342E04B8393E09D834E833F836D
:100CA00040E4488735E039879A8796E09B8793E34D
:100CB0009C8737E03D8798E09F8799E0998B99E181
:100CC0009B8B92E49C8B55E25D8B4E8B46E24F8B67
:100CD000388F38E2398F30E13A8F39E23B8F3CED83
:100CE0003C8F8D8F88E88E8F8FE28F8F8DE288A367
:100CF00080E389A337E33BA330E93CA338E33DA37A
:100D00009EA39CE39FA39FE898A79DE399A792E1E8
:100D10009AA79FE69BA78CA78FEF8DA76F3131F025
:100D20006B3231F0663531F084EE05C08EE403C0DD
:100D30008CE601C089ED8E876F3121F06B3221F096
:100D4000663521F080EC03C080E401C080E0888B30
:100D50002AA361E0D80112968C910E940F0361E0F2
:100D6000F80182810E94D3020E9436090E94020289
:100D70004B015C014AEA6FE2C8010E947D046FE208
:100D8000C8010E9453048A3A61F00E940202DC0109
:100D9000CB0188199909AA09BB09C297A105B10518
:100DA00048F30E9402024B015C0145E56FE2C80175
:100DB0000E947D046FE2C8010E945304853561F0F2
:100DC0000E940202DC01CB0188199909AA09BB091A
:100DD000C297A105B10548F3F12CF601EF0DF11D05
:100DE000EF0DF11D60816F3F31F04181C8010E941C
:100DF0007D04F394F2CF60E070E0C8010E94DE054C
:100E0000D801ED91FC9111970084F185E02D1896A1
:100E10006C91C8010995D801ED91FC910488F58980
:100E2000E02D61E0C80109950E9402024B015C01BE
:100E300067E2C8010E94530487FD0CC00E940202B1
:100E4000DC01CB0188199909AA09BB09C297A10540
:100E5000B10570F30E940202DC01CB0188199909E7
:100E6000AA09BB09C297A105B10598F410929C018B
:100E700043E050E069E773E0F80184810E946E0965
:100E800010939B0100939A01D8011596EC9281E092
:100E900001C080E0AE960FB6F894DEBF0FBECDBFA6
:100EA000DF91CF911F910F91FF90EF90DF90CF9046
:100EB000BF90AF909F908F900895CF93DF93EC01F8
:100EC00061110DC064E2CE010E94530490E091953F
:100ED0008195910995958795DF91CF91089541E08E
:100EE00063E20E947D0463E2CE010E94530481FF0D
:100EF000FACFE8CFCF93DF932091A5012330A9F457
:100F00002091A101211111C0EC0160E00E945D0758
:100F1000863A9F4F54F4E881F9810488F589E02DE1
:100F200061E0CE01099581E001C080E0DF91CF91C1
:100F30000895EF92FF921F93CF93DF93EC0180917E
:100F4000A501833001F568E2CE010E94530482FDC1
:100F500028C019C08091A4018D3330F4E091A40120
:100F6000F0E0EA55FE4F1082E881F981028CF38DA2
:100F7000E02DCE010995E881F9810488F589E02DFD
:100F800063E0CE01099560E0CE010E945D07909379
:100F90009E0180939D01DF91CF911F91FF90EF9073
:100FA0000895E881F9810488F589E02D61E0CE019A
:100FB0000995E881F981008CF18DE02DCE0109952C
:100FC00080E00E94D50380E00E94D5038093A101B8
:100FD0008091A1018334D0F48091A1018093A1017B
:100FE00080E00E94D5038093A2018E81811109C007
:100FF0009091A2018D81981721F08091A2018F3FDD
:1010000039F48091A101833018F017C082E4E6CF53
:101010001092A101E881F981028CF38DE02DCE01BF
:101020000995E881F9810288F389E02DCE01DF91ED
:10103000CF911F91FF90EF9009948091A10183506F
:101040008093A40180E00E94D5038093A30180E0F7
:101050000E94D503982F907890939F01982F9074B9
:101060009093A001E881F9810684F785E02D682F2F
:10107000CE01099510E08091A401181708F06ACFFD
:10108000E12EF12C80E00E94D503F701EA55FE4FD6
:1010900080831F5FF0CF8F929F92AF92BF92CF92CB
:1010A000DF92EF92FF920F931F93CF93DF93EC01A8
:1010B000162F6A01F22E6DE30E945304482F4460FC
:1010C0006DE3CE010E947D040E9402024B015C018F
:1010D000CE010E947A078823C1F0E881F981008857
:1010E000F189E02DE12C2F2DA601612FCE0109956C
:1010F000DF91CF911F910F91FF90EF90DF90CF90F4
:10110000BF90AF909F908F9008950E940202DC01E3
:10111000CB0188199909AA09BB09883E9340A1050A
:10112000B105D8F6E881F9810480F581E02DCE0182
:101130000995CECF4F925F926F927F92AF92BF92FE
:10114000CF92DF92EF92FF920F931F93CF93DF9393
:10115000EC015B01F42E1092A0011091A301C0904C
:101160009D01D0909E016DE30E945304482F44607E
:101170006DE3CE010E947D040E9402022B013C011E
:10118000CE010E947A07882311F11093A301E88110
:10119000F9810088F189E02DEE24E39400E02F2D01
:1011A000A501612FCE010995D0929E01C0929D01AB
:1011B000DF91CF911F910F91FF90EF90DF90CF9033
:1011C000BF90AF907F906F905F904F9008950E9476
:1011D0000202DC01CB0184199509A609B709883EF2
:1011E0009340A105B10588F6E881F9810480F58175
:1011F000E02DCE010995C4CFCF93DF93EC01688732
:10120000611102C04AE101C04FE063E1CE010E94DA
:101210007D048885882341F061E1CE010E9453045A
:101220008F71482F406602C04F81406861E1CE0156
:10123000DF91CF910C947D041F93CF93DF93EC014A
:10124000162F611102C045E501C04DE56AE5CE01EA
:101250000E947D04111102C040E701C04CE76CE51B
:10126000CE01DF91CF911F910C947D04CF93CFB726
:10127000F8948091E301811127C0EAE9F0E08491BC
:10128000E6E8F0E09491E82FF0E0EE0FFF1FE8545D
:10129000FF4FA591B491EC91E92321F461E08AE03C
:1012A0000E940F0361E08AE00E94D3028CB5806146
:1012B0008CBD8CB580648CBD61E08DE00E94D30252
:1012C00061E08BE00E94D3028091E3018F5F809305
:1012D000E301CFBFCF910895089508958230E8F4D7
:1012E000E82FF0E0EE0FFF1FE050FF4F71836083A7
:1012F000813041F0809169008C7F482B40936900D8
:10130000E89A089580916900440F551F440F551FB6
:10131000837F482B40936900E99A08951F920F92AA
:101320000FB60F9211242F933F934F935F936F93B8
:101330007F938F939F93AF93BF93EF93FF93E0912E
:101340000001F09101010995FF91EF91BF91AF91DB
:101350009F918F917F916F915F914F913F912F91CD
:101360000F900FBE0F901F9018951F920F920FB6FF
:101370000F9211242F933F934F935F936F937F931B
:101380008F939F93AF93BF93EF93FF93E0910201ED
:10139000F09103010995FF91EF91BF91AF919F915A
:1013A0008F917F916F915F914F913F912F910F900E
:1013B0000FBE0F901F901895CF92DF92EF92FF9281
:1013C0000F931F93CF93DF936C017A018B01C0E0E1
:1013D000D0E0CE15DF0589F0D8016D918D01D601E1
:1013E000ED91FC910190F081E02DC6010995892BCA
:1013F00011F47E0102C02196ECCFC701DF91CF919D
:101400001F910F91FF90EF90DF90CF9008951F9262
:101410000F920FB60F9211242F938F939F93EF93F8
:10142000FF93E091F401F091F5018081E091FA01E0
:10143000F091FB0182FD12C090818091FD018F5FD0
:101440008F732091FE01821751F0E091FD01F0E0D1
:10145000EC51FE4F958F8093FD0101C08081FF917B
:10146000EF919F918F912F910F900FBE0F901F9032
:1014700018951F920F920FB60F9211242F933F933E
:101480004F935F936F937F938F939F93AF93BF938C
:10149000EF93FF9384EE91E00E94D20AFF91EF91C7
:1014A000BF91AF919F918F917F916F915F914F917C
:1014B0003F912F910F900FBE0F901F90189584EEC3
:1014C00091E00E94960A21E0892B09F420E0822F06
:1014D0000895E4EEF1E01382128288EE93E0A0E03A
:1014E000B0E084839583A683B78389E391E09183F9
:1014F000808385EC90E09587848784EC90E09787E3
:10150000868780EC90E0918B808B81EC90E0938BD0
:10151000828B82EC90E0958B848B86EC90E0978BAD
:10152000868B118E128E138E148E0895FC01918D70
:10153000228D892F90E0805C9F4F821B91098F73D1
:1015400099270895FC01918D828D981731F0828D35
:10155000E80FF11D858D90E008958FEF9FEF0895BE
:10156000FC01918D828D981761F0828DDF01A80FAB
:10157000B11D5D968C91928D9F5F9F73928F90E0CD
:1015800008958FEF9FEF08958FE59AE0892B49F03A
:1015900080E090E0892B29F00E945F0A81110C9471
:1015A00000000895FC01848DDF01A80FB11DA35A2E
:1015B000BF4F2C91848D90E001968F739927848F73
:1015C000A689B7892C93A089B1898C9180648C936A
:1015D000938D848D981306C00288F389E02D808155
:1015E0008F7D80830895CF93DF93EC01888D8823CE
:1015F000C9F0EA89FB89808185FD05C0A889B98980
:101600008C9186FD0FC00FB607FCF5CF808185FF5A
:10161000F2CFA889B9898C9185FFEDCFCE010E94C8
:10162000D20AE7CFDF91CF910895EF92FF920F9307
:101630001F93CF93DF93EC0181E0888F9B8D8C8D7E
:10164000981305C0E889F989808185FD24C0F62EAC
:101650000B8D10E00F5F1F4F0F731127E02E8C8D45
:10166000E8120CC00FB607FCFACFE889F98980812F
:1016700085FFF5CFCE010E94D20AF1CF8B8DFE01FE
:10168000E80FF11DE35AFF4FF0820B8FEA89FB89C7
:101690008081806207C0EE89FF896083E889F989CB
:1016A00080818064808381E090E0DF91CF911F9101
:1016B0000F91FF90EF900895A1E21A2EAA1BBB1B79
:1016C000FD010DC0AA1FBB1FEE1FFF1FA217B3070E
:1016D000E407F50720F0A21BB30BE40BF50B661F24
:1016E000771F881F991F1A9469F7609570958095E8
:1016F00090959B01AC01BD01CF010895EE0FFF1F36
:0C1700000590F491E02D0994F894FFCFBF
:10170C006D096D09746869734973456E63727970FC
:10171C00744B657900000000004B08FC038A039AA7
:10172C0008FC080E05990778032805AD05A5041CCF
:10173C0009BF03AC0300000000150BDC09960AB0CE
:06174C000AA20AF30A00E4
:00000001FF
