:100000000C9463000C94A1090C94C8090C948B0007
:100010000C948B000C948B000C948B000C948B0034
:100020000C948B000C948B000C948B000C948B0024
:100030000C948B000C948B000C948B000C948B0014
:100040000C94CB010C948B000C941A0A0C944C0A5F
:100050000C948B000C948B000C948B000C948B00F4
:100060000C948B000C948B0000000008000201002F
:100070000003040700000000000000000102040863
:100080001020408001020408102001020408102002
:10009000040404040404040402020202020203032E
:1000A00003030303000000002300260029000000D2
:1000B0000000250028002B0000000000240027007D
:1000C0002A009B017C0A11241FBECFEFD8E0DEBFBF
:1000D000CDBF11E0A0E0B1E0E2E3F7E102C005909E
:1000E0000D92A634B107D9F722E0A6E4B1E001C031
:1000F0001D92A339B207E1F710E0C3E6D0E004C0D7
:100100002197FE010E94910BC136D107C9F70E94C9
:100110007C030C94970B0C9400002CE34CE26BE5F1
:1001200086E491E00E94390665E071E086E491E0A2
:100130000E94F10561E083E00E94E60261E080E157
:100140000C94E6020F931F93CF93C82F8B0161E0AD
:100150000E94E60261E08C2F0E942203B801110F79
:10016000880B990B0E94460260E08C2FCF911F9163
:100170000F910C9422030F9386E491E00E949D035B
:10018000882309F43FC08BE2E8EBF1E0A8E7B1E097
:1001900001900D928A95E1F780917A01863051F4B1
:1001A00084E1EBE7F1E0A4E6B1E001900D928A95DD
:1001B000E1F7BFC0853009F0BCC080917B01909110
:1001C0007C01A0917D01B0917E01809360019093AC
:1001D0006101A0936201B09363018091610181305C
:1001E00011F461E001C060E083E00E94220380918D
:1001F0006301813011F461E001C060E080E10F91A2
:100200000C9422030E9415022AEB33E140E050E0F7
:100210000E946F0B672B682B692B09F043C081E0AC
:100220008093780184E08093790184E680937A0159
:1002300029E2209356018091570190915801A09195
:100240005901B0915A010196A11DB11D809357012A
:1002500090935801A0935901B0935A0120935B01E8
:100260000E94150260935C0170935D0180935E01B2
:1002700090935F018AE0E6E5F1E0ABE7B1E0019041
:100280000D928A95E1F700E02CE348E751E0609198
:10029000780186E491E00E945E0864E670E089E0FF
:1002A0000E94A2000E94150220E137E240E050E0E7
:1002B0000E946F0B672B682B692BD9F581E0809327
:1002C000780184E08093790185E680937A0188E261
:1002D0008093510183E00E94AE01092E000CAA0B0D
:1002E000BB0B8093520190935301A0935401B093A0
:1002F0005501EBE7F1E088E28E0F11928E13FDCFEE
:1003000085E0E1E5F1E0ABE7B1E001900D928A957F
:10031000E1F700E028E048E751E06091780186E4E9
:1003200091E00E945E0864E670E089E00F910C9411
:10033000A2000F910895E6E4F1E08AE191E0918353
:1003400080838AE0828382E08383148281E08093C9
:10035000B70116828FE18783108608958E3008F0EA
:100360008E5087702091000190E4299F9001112404
:10037000822B80937C0080917A00806480937A0045
:1003800080917A0086FDFCCF8091780020917900E1
:1003900090E0922B08951F920F920FB60F921124A6
:1003A0002F933F938F939F93AF93BF938091A4011B
:1003B0009091A501A091A601B091A7013091A30150
:1003C00023E0230F2D3720F40196A11DB11D05C098
:1003D00026E8230F0296A11DB11D2093A30180934F
:1003E000A4019093A501A093A601B093A7018091C9
:1003F000A8019091A901A091AA01B091AB01019629
:10040000A11DB11D8093A8019093A901A093AA01F9
:10041000B093AB01BF91AF919F918F913F912F917D
:100420000F900FBE0F901F9018952FB7F894609102
:10043000A4017091A5018091A6019091A7012FBF01
:1004400008953FB7F8948091A8019091A901A091D7
:10045000AA01B091AB0126B5A89B05C02F3F19F0AA
:100460000196A11DB11D3FBFBA2FA92F982F882734
:10047000820F911DA11DB11DBC01CD0142E0660F8F
:10048000771F881F991F4A95D1F708958F929F92E1
:10049000AF92BF92CF92DF92EF92FF926B017C01FD
:1004A0000E9421024B015C01C114D104E104F1045A
:1004B00001F10E947F090E942102DC01CB01881911
:1004C0009909AA09BB09883E9340A105B10560F3CB
:1004D00021E0C21AD108E108F10888EE880E83E015
:1004E000981EA11CB11CC114D104E104F10419F738
:1004F000DBCFFF90EF90DF90CF90BF90AF909F90B9
:100500008F900895789484B5826084BD84B58160AD
:1005100084BD85B5826085BD85B5816085BDEEE60B
:10052000F0E0808181608083E1E8F0E010828081EA
:1005300082608083808181608083E0E8F0E0808158
:1005400081608083E1EBF0E0808184608083E0EB78
:10055000F0E0808181608083EAE7F0E08081846060
:1005600080838081826080838081816080838081BC
:10057000806880831092C1000895833081F028F450
:10058000813099F08230A1F008958730A9F0883049
:10059000B9F08430D1F4809180008F7D03C08091C8
:1005A00080008F7780938000089584B58F7702C094
:1005B00084B58F7D84BD08958091B0008F7703C08E
:1005C0008091B0008F7D8093B0000895CF93DF932A
:1005D00090E0FC01E458FF4F2491FC01E057FF4FED
:1005E0008491882361F190E0880F991FFC01E85401
:1005F000FF4FC591D491FC01E255FF4FA591B491F5
:10060000611109C09FB7F89488812095822388835F
:10061000EC912E230BC0623061F49FB7F8943881BF
:10062000822F809583238883EC912E2B2C939FBF60
:1006300006C08FB7F894E8812E2B28838FBFDF91F7
:10064000CF9108951F93CF93DF93282F30E0F901C6
:10065000E859FF4F8491F901E458FF4FD491F90113
:10066000E057FF4FC491CC23C9F0162F81110E948F
:10067000BD02EC2FF0E0EE0FFF1FE255FF4FA591FA
:10068000B4918FB7F894111105C09C91ED2FE095AE
:10069000E92302C0EC91ED2BEC938FBFDF91CF915A
:1006A0001F910895CF93DF93282F30E0F901E85987
:1006B000FF4F8491F901E458FF4FD491F901E057BD
:1006C000FF4FC491CC2391F081110E94BD02EC2F09
:1006D000F0E0EE0FFF1FEC55FF4FA591B491EC91A8
:1006E000ED2381E090E021F480E002C080E090E022
:1006F000DF91CF91089508950E9482020E947B03AA
:100700000E948D00C7EDDAE00E94BB002097E1F364
:100710000E94D70AF9CF089581E08093AE018091BD
:10072000AC019091AD01DC01ED91FC910484F58563
:10073000E02D09951092AE010895F8942091B7012B
:10074000233021F42091B30121110FC02091B70172
:10075000233011F4789407C0DC01ED91FC910288FC
:10076000F389E02D099580E00895DC01ED91FC917D
:100770000488F589E02D61E0099581E00895CF9323
:10078000DF93EC0161E08A810E94220389858CBDA0
:100790008A858DBD8091AE01811101C07894DF9171
:1007A000CF910895FC01F8948CB581878DB582872F
:1007B0008CB5837F8CBD8CB58F7D8CBD8CB58C7FCB
:1007C0008CBD8DB58E7F8DBD60E082810C9422033F
:1007D0008EBD00000DB407FEFDCF8EB50895CF93FA
:1007E000DF931F92CDB7DEB7DC01ED91FC91048061
:1007F000F581E02D698309956981882361F08091F5
:10080000B501861711F06F3F29F49091B10181E095
:10081000911101C080E00F90DF91CF9108952F9248
:100820003F924F925F926F927F928F929F92AF9280
:10083000BF92CF92DF92EF92FF920F931F93CF93CD
:10084000DF936C01D62F3A01F22E102FC0E08E2CD0
:10085000912CA12CB12CD601ED91FC910190F0814D
:10086000E02D01E02F2DA3016D2FC60109950E94F7
:1008700015021B012C010E941502DC01CB0182191B
:100880009309A409B50988159905AA05BB0538F48B
:100890006D2FC6010E94EF03882369F304C0CF5F68
:1008A0001C17C8F680E0DF91CF911F910F91FF9048
:1008B000EF90DF90CF90BF90AF909F908F907F9000
:1008C0006F905F904F903F902F900895EF92FF921E
:1008D0001F93CF93DF931F92CDB7DEB77C01DC016E
:1008E000ED91FC91008CF18DE02D69830995698172
:1008F000862F8F770E94E80380E00E94E803182F7C
:10090000D701ED91FC91028CF38DE02DC701099583
:10091000812F0F90DF91CF911F91FF90EF9008955D
:100920000F931F93CF93DF9300D0CDB7DEB78C0129
:10093000DC01ED91FC91008CF18DE02D4A836983FF
:1009400009956981862F80680E94E8034A81842F77
:100950000E94E803D801ED91FC91028CF38DE02D0B
:10096000C8010F900F90DF91CF911F910F910994C3
:100970001F93CF93DF932091B701621709F45DC0F5
:10098000162FEC016230E9F168F4662309F440C0E7
:10099000613009F052C061E00E946604837E482FF6
:1009A00044603BC06330B9F0643009F046C061E098
:1009B0000E946604837E482F4C6061E0CE010E9455
:1009C00090048885882369F1E881F9810688F78990
:1009D000E02D61E013C061E00E946604837E482F31
:1009E000406161E0CE010E94900488858823C9F0AF
:1009F000E881F9810688F789E02D60E0CE0109954C
:100A000010C061E00E946604837E482F486005C0E4
:100A100061E00E946604482F437E61E0CE010E949F
:100A200090048091B701811106C067E2CE010E9457
:100A3000660487FFF6CF1093B701DF91CF911F9126
:100A40000895CF93DF93EC01603208F06FE16F837C
:100A50008885882311F066956F8361E1CE010E943D
:100A60006604807E9F81482F492B61E1CE01DF9192
:100A7000CF910C949004CF92DF92EF92FF920F935C
:100A80001F93CF93DF93EC01F62ED42EC52E122F99
:100A9000E881F9810488F589E02D61E0099567E234
:100AA000CE010E94660487FFFACF40E065E2CE01E6
:100AB0000E9490041E3308F01DE3E11004C00023DF
:100AC00021F000E403C000E801C000E0E881F98102
:100AD000008CF18DE02DCE01099580E80E94E8039D
:100AE00083E0810F0E94E8038F2D0E94E8038D812F
:100AF0000E94E803802F0E94E8030D2DED2CFC2CB2
:100B00008E2D801B811730F4F70181917F010E94A7
:100B1000E803F6CFE881F981028CF38DE02DCE0158
:100B20000995E881F9810488F589E02D64E0CE011A
:100B300009950E9415026B017C018B810E94520372
:100B4000892B81F0E881F9810488F589E02D61E045
:100B5000CE01DF91CF911F910F91FF90EF90DF9029
:100B6000CF9009940E941502DC01CB018C199D09DC
:100B7000AE09BF09883E9340A105B105F0F2E2CF6E
:100B8000CF93DF93EC011092B6011092B501109251
:100B9000B4011092B3011092B2011092B1011092FF
:100BA000B0011092AF0168E20E94660482FF0AC0A1
:100BB0006DE3CE010E946604482F44606DE3CE01D0
:100BC0000E94900440E465E2CE010E949004E88116
:100BD000F9810488F589E02D63E0CE01DF91CF91A2
:100BE0000994CF92DF92EF92FF920F931F93CF93CE
:100BF000DF93EC018B01E881F9810488F589E02D10
:100C000061E0099501151105F1F0E881F981008C89
:100C1000F18DE02DCE0109958EEB0E94E80378015D
:100C2000680180E1C80ED11CF70181917F010E940B
:100C3000E803EC14FD04C1F7E881F981028CF38D1F
:100C4000E02DCE0109956DE3CE010E9466048E7FF2
:100C500041E0012B09F440E0482B6DE3CE01DF9128
:100C6000CF911F910F91FF90EF90DF90CF900C9458
:100C700090048F929F92AF92BF92CF92DF92EF92A9
:100C8000FF920F931F93CF93DF93CDB7DEB7AE974D
:100C90000FB6F894DEBF0FBECDBF8C01E42E8EE2FE
:100CA000AE014F5F5F4F6A01DA01E82F1D92EA95AE
:100CB000E9F791E0998334E03A8342E04B8393E093
:100CC0009D834E833F8340E4488735E039879A8788
:100CD00096E09B8793E39C8737E03D8798E09F876A
:100CE00099E0998B99E19B8B92E49C8B55E25D8B0B
:100CF0004E8B46E24F8B388F38E2398F30E13A8F96
:100D000039E23B8F3CED3C8F8D8F88E88E8F8FE2F0
:100D10008F8F8DE288A380E389A337E33BA330E97B
:100D20003CA338E33DA39EA39CE39FA39FE898A721
:100D30009DE399A792E19AA79FE69BA78CA78FEFC7
:100D40008DA76F3131F06B3231F0663531F084EEC2
:100D500005C08EE403C08CE601C089ED8E876F313B
:100D600021F06B3221F0663521F080EC03C080E485
:100D700001C080E0888B2AA361E0D80112968C9193
:100D80000E94220361E0F80182810E94E6020E9433
:100D900049090E9415024B015C014AEA6FE2C80151
:100DA0000E9490046FE2C8010E9466048A3A61F0D2
:100DB0000E941502DC01CB0188199909AA09BB0917
:100DC000C297A105B10548F30E9415024B015C01D1
:100DD00045E56FE2C8010E9490046FE2C8010E94DD
:100DE0006604853561F00E941502DC01CB0188198B
:100DF0009909AA09BB09C297A105B10548F3F12CCD
:100E0000F601EF0DF11DEF0DF11D60816F3F31F027
:100E10004181C8010E949004F394F2CF60E070E039
:100E2000C8010E94F105D801ED91FC911197008451
:100E3000F185E02D18966C91C8010995D801ED91C6
:100E4000FC910488F589E02D61E0C80109950E94B4
:100E500015024B015C0167E2C8010E94660487FD30
:100E60000CC00E941502DC01CB0188199909AA095E
:100E7000BB09C297A105B10570F30E941502DC0100
:100E8000CB0188199909AA09BB09C297A105B10527
:100E900098F41092AE0143E050E06CE873E0F80182
:100EA00084810E9481091093AD010093AC01D801A7
:100EB0001596EC9281E001C080E0AE960FB6F894F2
:100EC000DEBF0FBECDBFDF91CF911F910F91FF907D
:100ED000EF90DF90CF90BF90AF909F908F9008954C
:100EE000CF93DF93EC0161110DC064E2CE010E944B
:100EF000660490E091958195910995958795DF918C
:100F0000CF91089541E063E20E94900463E2CE0134
:100F10000E94660481FFFACFE8CFCF93DF93209140
:100F2000B7012330A9F42091B301211111C0EC01C4
:100F300060E00E947007863A9F4F54F4E881F9817F
:100F40000488F589E02D61E0CE01099581E001C0BA
:100F500080E0DF91CF910895EF92FF921F93CF939E
:100F6000DF93EC018091B701833001F568E2CE0197
:100F70000E94660482FD28C019C08091B6018D339D
:100F800030F4E091B601F0E0E854FE4F1082E881C1
:100F9000F981028CF38DE02DCE010995E881F9816C
:100FA0000488F589E02D63E0CE01099560E0CE016B
:100FB0000E9470079093B0018093AF01DF91CF91B1
:100FC0001F91FF90EF900895E881F9810488F589D9
:100FD000E02D61E0CE010995E881F981008CF18D69
:100FE000E02DCE01099580E00E94E80380E00E9498
:100FF000E8038093B3018091B3018334D0F48091EE
:10100000B3018093B30180E00E94E8038093B401B0
:101010008E81811109C09091B4018D81981721F0C2
:101020008091B4018F3F39F48091B301833018F07F
:1010300017C082E4E6CF1092B301E881F981028CF7
:10104000F38DE02DCE010995E881F9810288F389BD
:10105000E02DCE01DF91CF911F91FF90EF90099489
:101060008091B30183508093B60180E00E94E80331
:101070008093B50180E00E94E803982F90789093C8
:10108000B101982F90749093B201E881F9810684A0
:10109000F785E02D682FCE01099510E08091B6010B
:1010A000181708F06ACFE12EF12C80E00E94E803C7
:1010B000F701E854FE4F80831F5FF0CF8F929F921D
:1010C000AF92BF92CF92DF92EF92FF920F931F9356
:1010D000CF93DF93EC01162F6A01F22E6DE30E948D
:1010E0006604482F44606DE3CE010E9490040E9484
:1010F00015024B015C01CE010E948D078823C1F0CF
:10110000E881F9810088F189E02DE12C2F2DA601DD
:10111000612FCE010995DF91CF911F910F91FF9023
:10112000EF90DF90CF90BF90AF909F908F900895F9
:101130000E941502DC01CB0188199909AA09BB0993
:10114000883E9340A105B105D8F6E881F981048075
:10115000F581E02DCE010995CECF4F925F926F922F
:101160007F92AF92BF92CF92DF92EF92FF920F9356
:101170001F93CF93DF93EC015B01F42E1092B20129
:101180001091B501C090AF01D090B0016DE30E9405
:101190006604482F44606DE3CE010E9490040E94D3
:1011A00015022B013C01CE010E948D07882311F10D
:1011B0001093B501E881F9810088F189E02DEE24D2
:1011C000E39400E02F2DA501612FCE010995D09267
:1011D000B001C092AF01DF91CF911F910F91FF90AD
:1011E000EF90DF90CF90BF90AF907F906F905F9027
:1011F0004F9008950E941502DC01CB0184199509D6
:10120000A609B709883E9340A105B10588F6E88193
:10121000F9810480F581E02DCE010995C4CFCF93EB
:10122000DF93EC016887611102C04AE101C04FE021
:1012300063E1CE010E9490048885882341F061E13A
:10124000CE010E9466048F71482F406602C04F8114
:10125000406861E1CE01DF91CF910C9490041F931F
:10126000CF93DF93EC01162F611102C045E501C059
:101270004DE56AE5CE010E949004111102C040E7DD
:1012800001C04CE76CE5CE01DF91CF911F910C942A
:101290009004CF93CFB7F8948091F501811127C0C6
:1012A000EAE9F0E08491E6E8F0E09491E82FF0E0DC
:1012B000EE0FFF1FE854FF4FA591B491EC91E92385
:1012C00021F461E08AE00E94220361E08AE00E944A
:1012D000E6028CB580618CBD8CB580648CBD61E00C
:1012E0008DE00E94E60261E08BE00E94E6028091C0
:1012F000F5018F5F8093F501CFBFCF9108950895D9
:1013000008958230E8F4E82FF0E0EE0FFF1FEF5F62
:10131000FE4F71836083813041F0809169008C7F42
:10132000482B40936900E89A089580916900440F22
:10133000551F440F551F837F482B40936900E99A3E
:1013400008951F920F920FB60F9211242F933F937F
:101350004F935F936F937F938F939F93AF93BF93BD
:10136000EF93FF93E0910101F09102010995FF9144
:10137000EF91BF91AF919F918F917F916F915F910D
:101380004F913F912F910F900FBE0F901F90189586
:101390001F920F920FB60F9211242F933F934F93EA
:1013A0005F936F937F938F939F93AF93BF93EF93CD
:1013B000FF93E0910301F09104010995FF91EF91F2
:1013C000BF91AF919F918F917F916F915F914F915D
:1013D0003F912F910F900FBE0F901F901895CF92B5
:1013E000DF92EF92FF920F931F93CF93DF936C01E5
:1013F0007A018B01C0E0D0E0CE15DF0589F0D8017D
:101400006D918D01D601ED91FC910190F081E02D5F
:10141000C6010995892B11F47E0102C02196ECCFFB
:10142000C701DF91CF911F910F91FF90EF90DF9057
:10143000CF9008951F920F920FB60F9211242F9301
:101440008F939F93EF93FF93E0910602F091070231
:101450008081E0910C02F0910D0282FD12C090811A
:1014600080910F028F5F8F7320911002821751F0CD
:10147000E0910F02F0E0EA50FE4F958F80930F024B
:1014800001C08081FF91EF919F918F912F910F90DB
:101490000FBE0F901F9018951F920F920FB60F92CC
:1014A00011242F933F934F935F936F937F938F9369
:1014B0009F93AF93BF93EF93FF9386EF91E00E94CA
:1014C000E50AFF91EF91BF91AF919F918F917F912D
:1014D0006F915F914F913F912F910F900FBE0F90A1
:1014E0001F90189586EF91E00E94A90A21E0892BB0
:1014F00009F420E0822F0895E6EFF1E013821282D2
:1015000088EE93E0A0E0B0E084839583A683B78360
:101510008AE391E09183808385EC90E095878487CE
:1015200084EC90E09787868780EC90E0918B808BAD
:1015300081EC90E0938B828B82EC90E0958B848B96
:1015400086EC90E0978B868B118E128E138E148E04
:101550000895FC01918D228D892F90E0805C9F4F32
:10156000821B91098F7399270895FC01918D828DBB
:10157000981731F0828DE80FF11D858D90E0089568
:101580008FEF9FEF0895FC01918D828D981761F088
:10159000828DDF01A80FB11D5D968C91928D9F5FAA
:1015A0009F73928F90E008958FEF9FEF089582E7E9
:1015B0009AE0892B49F080E090E0892B29F00E9485
:1015C000720A81110C9400000895FC01848DDF01E2
:1015D000A80FB11DA35ABF4F2C91848D90E00196A6
:1015E0008F739927848FA689B7892C93A089B18995
:1015F0008C9180648C93938D848D981306C002889F
:10160000F389E02D80818F7D80830895CF93DF93D0
:10161000EC01888D8823C9F0EA89FB89808185FDEA
:1016200005C0A889B9898C9186FD0FC00FB607FC4B
:10163000F5CF808185FFF2CFA889B9898C9185FF8C
:10164000EDCFCE010E94E50AE7CFDF91CF9108955B
:10165000EF92FF920F931F93CF93DF93EC0181E002
:10166000888F9B8D8C8D981305C0E889F9898081BE
:1016700085FD24C0F62E0B8D10E00F5F1F4F0F73FA
:101680001127E02E8C8DE8120CC00FB607FCFACFA4
:10169000E889F989808185FFF5CFCE010E94E50AAE
:1016A000F1CF8B8DFE01E80FF11DE35AFF4FF08261
:1016B0000B8FEA89FB898081806207C0EE89FF89F0
:1016C0006083E889F98980818064808381E090E08B
:1016D000DF91CF911F910F91FF90EF900895A1E2BC
:1016E0001A2EAA1BBB1BFD010DC0AA1FBB1FEE1F9C
:1016F000FF1FA217B307E407F50720F0A21BB30BE7
:10170000E40BF50B661F771F881F991F1A9469F762
:1017100060957095809590959B01AC01BD01CF01BE
:101720000895EE0FFF1F0590F491E02D0994F894B1
:02173000FFCFE9
:101732000180098009746869734973456E6372791F
:1017420070744B657900000000005E080F049D0371
:10175200AD080F092105AC078B033B05C005B80492
:101762002F09D203BF0300000000280BEF09A90ACA
:06177200C30AB50A060BD4
:00000001FF
